{
  "_format": "hh-sol-artifact-1",
  "contractName": "Disperse",
  "sourceName": "contracts/Disperse.sol",
  "abi": [
    {
      "inputs": [
        {
          "internalType": "address[]",
          "name": "recipients",
          "type": "address[]"
        },
        {
          "internalType": "uint256[]",
          "name": "values",
          "type": "uint256[]"
        }
      ],
      "name": "disperseShardeum",
      "outputs": [],
      "stateMutability": "payable",
      "type": "function"
    }
  ],
  "bytecode": "0x608060405234801561001057600080fd5b50610316806100206000396000f3fe60806040526004361061001e5760003560e01c80632571cf0d14610023575b600080fd5b6100366100313660046101d4565b610038565b005b60005b82518110156100c257828181518110610056576100566102a3565b60200260200101516001600160a01b03166108fc83838151811061007c5761007c6102a3565b60200260200101519081150290604051600060405180830381858888f193505050501580156100af573d6000803e3d6000fd5b50806100ba816102b9565b91505061003b565b504780156100f957604051339082156108fc029083906000818181858888f193505050501580156100f7573d6000803e3d6000fd5b505b505050565b634e487b7160e01b600052604160045260246000fd5b604051601f8201601f1916810167ffffffffffffffff8111828210171561013d5761013d6100fe565b604052919050565b600067ffffffffffffffff82111561015f5761015f6100fe565b5060051b60200190565b600082601f83011261017a57600080fd5b8135602061018f61018a83610145565b610114565b82815260059290921b840181019181810190868411156101ae57600080fd5b8286015b848110156101c957803583529183019183016101b2565b509695505050505050565b600080604083850312156101e757600080fd5b823567ffffffffffffffff808211156101ff57600080fd5b818501915085601f83011261021357600080fd5b8135602061022361018a83610145565b82815260059290921b8401810191818101908984111561024257600080fd5b948201945b838610156102765785356001600160a01b03811681146102675760008081fd5b82529482019490820190610247565b9650508601359250508082111561028c57600080fd5b5061029985828601610169565b9150509250929050565b634e487b7160e01b600052603260045260246000fd5b6000600182016102d957634e487b7160e01b600052601160045260246000fd5b506001019056fea26469706673582212204805bc3345f5f375a9bec13cb1cd68116f4fe8f38b3031babf33a65b55b2b73664736f6c63430008110033",
  "linkReferences": {},
  "deployedLinkReferences": {}
}